S01100004C49435F43565F30312E7372656383
S11300000C9434000C9451000C9451000C94510045
S11300100C9451000C9451000C9451000C94510018
S11300200C9451000C9451000C9451000C94510008
S11300300C9451000C9451000C9451000C945100F8
S11300400C9451000C9451000C9451000C945100E8
S11300500C9451000C9451000C9451000C945100D8
S11300600C9451000C94510011241FBECFEFD8E022
S1130070DEBFCDBF11E0A0E0B1E0E4E2FCE002C0ED
S113008005900D92AC36B107D9F721E0ACE6B1E0AA
S113009001C01D92AC36B207E1F70E94B7020C947E
S11300A010060C940000CF93C62F2A98880F8E77E1
S11300B00E947E028C2F0E947E022A9ACF9108957C
S11300C02A98880F8E7780680E947E0280E00E94C2
S11300D07E022A9A08956FE081E00E9453000895F9
S11300E00E946B006DE88AE20E9453006EE38BE28B
S11300F00E9453006EE18CE20E94530060E08DE2A6
S11301000E94530060E485E10E9453006DE381E1A5
S11301100E94530084E10E946000982F937029F498
S1130120682F636084E10E94530008953F924F92C8
S11301305F926F927F928F929F92AF92BF92CF9273
S1130140DF92EF92FF920F931F93CF93DF93482E8A
S1130150E62EF72E842E722E632E8CE0481631F094
S1130160EEE04E1661F0512C312C10C00F2EF0E34E
S11301705F2EF02D0F2EF7E73F2EF02D07C0689469
S1130180552454F80F2EF2E13F2EF02D84E00E9406
S11301906000682F6F7784E00E9453008AE00E9419
S11301A06000682F60688AE00E94530060E081E08C
S11301B00E945300912CA12CB12C81149104A10410
S11301C0B10499F0CE2DDF2DC12CD12C760169918B
S11301D089E00E945300FFEFCF1ADF0AEF0AFF0AFB
S11301E0C814D904EA04FB0490F3642D81E00E944E
S11301F053008CE0481208C08DE00E946000682F14
S113020060688DE00E94530084E00E946000F82E34
S1130210C0E0D0E0E52DE1605E2E0AC084E00E94DB
S11302206000F82E2196CF3CF7E0DF0709F475C093
S11302308F2D852199F37BC0832D8170F82211F4D1
S1130240C1E001C0C2E08CE0481280C08AE00E9494
S11302506000882E8CE00E946000282F2770E9F04F
S1130260882D90E00197AA2797FDA095BA2F880FB3
S1130270991FAA1FBB1F880F991FAA1FBB1F880F96
S1130280991FAA1FBB1F820F911DA11DB11DF8014B
S113029080839183A283B38315C0482D50E060E02E
S11302A070E0440F551F661F771F440F551F661FCC
S11302B0771F440F551F661F771FF8014083518332
S11302C06283738381100AC0812C912C540183941E
S11302D0072D162DC12CD12C76010EC0882D81310D
S11302E008F080E1882E912CA12CB12C811491046A
S11302F0A104B10469F72AC089E00E946000F801F2
S113030081938F01FFEFCF1ADF0AEF0AFF0AC814A7
S1130310D904EA04FB0480F319C08DE00E94600054
S1130320682F6F778DE00E945300C3E00FC08DE00B
S11303300E946000682F6F778DE00E94530086E072
S11303400E9460008B7109F477CFC3E08C2FDF919A
S1130350CF911F910F91FF90EF90DF90CF90BF90BE
S1130360AF909F908F907F906F905F904F903F9051
S11303700895EF92FF920F931F93CF93DF9300D0D2
S113038000D0CDB7DEB7182F7B0167E08DE00E9467
S11303905300F70110838E010F5F1F4F970141E057
S11303A0B7018CE00E949600813051F449815A8152
S11303B06B817C81403151056105710519F403C0DD
S11303C083E001C083E00F900F900F900F90DF91B6
S11303D0CF911F910F91FF90EF900895EF92FF92AC
S11303E00F931F93CF93DF9300D000D0CDB7DEB728
S11303F07C0160E08DE00E94530083E9F701808373
S113040080E281838E010F5F1F4F970142E0B701A5
S11304108CE00E949600813061F4F70120E090E0C6
S1130420319123279F5F9430D9F7F70194812913E1
S113043083E00F900F900F900F90DF91CF911F9159
S11304400F91FF90EF9008950F931F93CF93DF9335
S1130450CDB7DEB760970FB6F894DEBF0FBECDBF41
S11304608C01BE016F5F7F4F86E20E94B90181302B
S113047061F4898190E0982F88272A81820F911D49
S1130480F8019183808381E001C080E060960FB61B
S1130490F894DEBF0FBECDBFDF91CF911F910F91B6
S11304A008959093C5008093C40088E98093C100A7
S11304B086E08093C2000895E0ECF0E0908195FF1F
S11304C0FDCF8093C6000895CF93DF93EC0188811C
S11304D0882331F021960E945C0289918111FBCF1F
S11304E08DE00E945C028AE00E945C02DF91CF9161
S11304F008958CE284B981E58CBD08958EBD0DB458
S113050007FEFDCF8EB508950F931F93CF93DF930E
S1130510CDB7DEB760970FB6F894DEBF0FBECDBF80
S11305208C01FB0111821082CB010E9424028823DA
S113053081F0CE0101960E94EE01813061F485E0E4
S1130540FE013196D80101900D928A95E1F781E080
S113055003C080E001C080E060960FB6F894DEBF6F
S11305600FBECDBFDF91CF911F910F910895CF930F
S1130570DF93CDB7DEB7A7970FB6F894DEBF0FBEF3
S1130580CDBF2FE38DE093E0215080409040E1F710
S113059000C0000089E190E00E9451020E947902AB
S11305A00E94700087E30E946000823999F41F92D0
S11305B08F938AE091E09F938F93CE0108969F9347
S11305C08F930E943F030F900F900F900F900F9006
S11305D00F9020C090E7980F923098F41F928F9359
S11305E08EE291E09F938F93CE0108969F938F9311
S11305F00E943F030F900F900F900F900F900F9059
S113060009C084E1E2E5F1E0DE01189601900D9263
S11306108A95E1F7CE0108960E9464020F2EF6E651
S1130620EF2EF1E0FF2EF02D8E01085F1F4F2FE318
S11306308DE093E0215080409040E1F700C000003D
S1130640BE016A5F7F4FCE0101960E9484021F9211
S11306508F93FF92EF921F930F930E943F03C80161
S11306600E94640287EA91E60197F1F700C0000056
S11306700F900F900F900F900F900F90D8CFAEE087
S1130680B0E0E5E4F3E00C94E7050D891E8986E00B
S11306908C831A8309838FEF9FE79E838D83AE013A
S11306A0475E5F4F6F89788DCE0101960E9461038A
S11306B0EF81F885E00FF11F10822E96E4E00C9490
S11306C00306ACE0B0E0E7E6F3E00C94D9057C0166
S11306D06B018A01FC0117821682838181FFBDC1EF
S11306E0CE0101964C01F7019381F60193FD8591AA
S11306F093FF81916F01882309F4ABC1853239F4EA
S113070093FD859193FF81916F01853229F4B7019F
S113071090E00E944905E7CF512C312C20E0203293
S1130720A0F48B3269F030F4803259F0833269F4EA
S113073020612CC08D3239F0803339F4216026C019
S11307402260246023C0286021C027FD27C030ED2B
S1130750380F3A3078F426FF06C0FAE05F9E300D79
S11307601124532E13C08AE0389E300D1124332EE9
S113077020620CC08E3221F426FD6BC1206406C0B9
S11307808C3611F4206802C0883641F4F60193FDDA
S1130790859193FF81916F018111C1CF982F9F7D26
S11307A09554933028F40C5F1F4FFFE3F9830DC079
S11307B0833631F0833771F0833509F05BC022C092
S11307C0F801808189830E5F1F4F44244394512C88
S11307D0540115C03801F2E06F0E711CF801A080BD
S11307E0B18026FF03C0652D70E002C06FEF7FEF7C
S11307F0C5012C870E943E052C0183012C852F778F
S1130800222E17C03801F2E06F0E711CF801A0808F
S1130810B18026FF03C0652D70E002C06FEF7FEF4B
S1130820C5012C870E9433052C012C852068222EBB
S1130830830123FC1BC0832D90E048165906B0F4B5
S1130840B70180E290E00E9449053A94F4CFF501A3
S113085027FC859127FE81915F01B70190E00E94FA
S1130860490531103A94F1E04F1A510841145104EA
S113087071F7E5C0843611F0893639F5F80127FFA0
S113088007C060817181828193810C5F1F4F08C012
S113089060817181882777FD8095982F0E5F1F4FA7
S11308A02F76B22E97FF09C090958095709561952B
S11308B07F4F8F4F9F4F2068B22E2AE030E0A40173
S11308C00E947B05A82EA81844C0853729F42F7EE2
S11308D0B22E2AE030E025C0F22FF97FBF2E8F36EA
S11308E0C1F018F4883579F0B4C0803719F088372E
S11308F021F0AFC02F2F2061B22EB4FE0DC08B2D7E
S11309008460B82E09C024FF0AC09F2F9660B92EB8
S113091006C028E030E005C020E130E002C020E15C
S113092032E0F801B7FE07C0608171818281938152
S11309300C5F1F4F06C06081718180E090E00E5F04
S11309401F4FA4010E947B05A82EA818FB2DFF773A
S1130950BF2EB6FE0BC02B2D2E7FA51450F4B4FE73
S11309600AC0B2FC08C02B2D2E7E05C07A2C2B2D7C
S113097003C07A2C01C0752C24FF0DC0FE01EA0DC2
S1130980F11D8081803311F4297E09C022FF06C045
S11309907394739404C0822F867809F0739423FDB2
S11309A013C020FF06C05A2C731418F4530C5718A4
S11309B0732C731468F4B70180E290E02C870E94D2
S11309C0490573942C85F5CF731410F4371801C0BE
S11309D0312C24FF12C0B70180E390E02C870E94E1
S11309E049052C8522FF17C021FF03C088E590E04C
S11309F002C088E790E0B7010CC0822F867859F0D6
S1130A0021FD02C080E201C08BE227FD8DE2B70127
S1130A1090E00E944905A51438F4B70180E390E002
S1130A200E9449055A94F7CFAA94F401EA0DF11DE6
S1130A308081B70190E00E944905A110F5CF3320D1
S1130A4009F451CEB70180E290E00E9449053A943E
S1130A50F6CFF7018681978102C08FEF9FEF2C9626
S1130A60E2E10C94F505FC01059061507040011021
S1130A70D8F7809590958E0F9F1F0895FC016150C3
S1130A80704001900110D8F7809590958E0F9F1FAC
S1130A9008950F931F93CF93DF93182F092FEB0122
S1130AA08B8181FD03C08FEF9FEF20C082FF10C0B8
S1130AB04E815F812C813D81421753077CF4E8818C
S1130AC0F9819F012F5F3F4F39832883108306C02C
S1130AD0E885F985812F0995892B29F72E813F8196
S1130AE02F5F3F4F3F832E83812F902FDF91CF9134
S1130AF01F910F910895FA01AA27283051F120314E
S1130B0081F1E8946F936E7F6E5F7F4F8F4F9F4F9D
S1130B10AF4FB1E03ED0B4E03CD0670F781F891FDF
S1130B209A1FA11D680F791F8A1F911DA11D6A0FAD
S1130B30711D811D911DA11D20D009F468943F9160
S1130B402AE0269F11243019305D3193DEF6CF015F
S1130B500895462F4770405D4193B3E00FD0C9F725
S1130B60F6CF462F4F70405D4A3318F0495D31FD92
S1130B704052419302D0A9F7EACFB4E0A6959795E5
S1130B80879577956795BA95C9F7009761057105BB
S1130B9008959B01AC010A2E069457954795379505
S1130BA02795BA95C9F7620F731F841F951FA01D5F
S1130BB008952F923F924F925F926F927F928F92FD
S1130BC09F92AF92BF92CF92DF92EF92FF920F93D8
S1130BD01F93CF93DF93CDB7DEB7CA1BDB0B0FB6E2
S1130BE0F894DEBF0FBECDBF09942A88398848889F
S1130BF05F846E847D848C849B84AA84B984C88435
S1130C00DF80EE80FD800C811B81AA81B981CE0F2B
S1130C10D11D0FB6F894DEBF0FBECDBFED01089510
S1070C20F894FFCF72
S1130C244E4F20524541444552005665727A653A06
S1130C34205243353232763220252E32580A0D5250
S1130C4443353232204445544543544544005665A3
S1130C54727A653A205243353232763120252E3267
S1130C64580A0D52433532322044455445435445C1
S1130C74440052433532323A204E4F5420444554B2
S10F0C84454354454400252E3858000018
S9030000FC
